{
  "_format": "hh-sol-artifact-1",
  "contractName": "Incase",
  "sourceName": "contracts/Incase.sol",
  "abi": [
    {
      "inputs": [],
      "stateMutability": "nonpayable",
      "type": "constructor"
    },
    {
      "inputs": [],
      "name": "InvalidLegacy",
      "type": "error"
    },
    {
      "inputs": [],
      "name": "NoLegacyRegistered",
      "type": "error"
    },
    {
      "inputs": [],
      "name": "NonTransferrableToken",
      "type": "error"
    },
    {
      "anonymous": false,
      "inputs": [
        {
          "indexed": true,
          "internalType": "uint256",
          "name": "timestamp",
          "type": "uint256"
        },
        {
          "indexed": true,
          "internalType": "address",
          "name": "testator",
          "type": "address"
        },
        {
          "indexed": true,
          "internalType": "address",
          "name": "token",
          "type": "address"
        },
        {
          "indexed": false,
          "internalType": "address",
          "name": "beneficiary",
          "type": "address"
        },
        {
          "indexed": false,
          "internalType": "uint256",
          "name": "amount",
          "type": "uint256"
        },
        {
          "indexed": false,
          "internalType": "uint256",
          "name": "tokenId",
          "type": "uint256"
        },
        {
          "indexed": false,
          "internalType": "uint256",
          "name": "nftId",
          "type": "uint256"
        }
      ],
      "name": "AddLegacy",
      "type": "event"
    },
    {
      "anonymous": false,
      "inputs": [
        {
          "indexed": true,
          "internalType": "address",
          "name": "owner",
          "type": "address"
        },
        {
          "indexed": true,
          "internalType": "address",
          "name": "approved",
          "type": "address"
        },
        {
          "indexed": true,
          "internalType": "uint256",
          "name": "tokenId",
          "type": "uint256"
        }
      ],
      "name": "Approval",
      "type": "event"
    },
    {
      "anonymous": false,
      "inputs": [
        {
          "indexed": true,
          "internalType": "address",
          "name": "owner",
          "type": "address"
        },
        {
          "indexed": true,
          "internalType": "address",
          "name": "operator",
          "type": "address"
        },
        {
          "indexed": false,
          "internalType": "bool",
          "name": "approved",
          "type": "bool"
        }
      ],
      "name": "ApprovalForAll",
      "type": "event"
    },
    {
      "anonymous": false,
      "inputs": [
        {
          "indexed": true,
          "internalType": "uint256",
          "name": "timestamp",
          "type": "uint256"
        },
        {
          "indexed": true,
          "internalType": "address",
          "name": "testator",
          "type": "address"
        },
        {
          "indexed": true,
          "internalType": "uint256",
          "name": "executionDay",
          "type": "uint256"
        }
      ],
      "name": "Executed",
      "type": "event"
    },
    {
      "anonymous": false,
      "inputs": [
        {
          "indexed": true,
          "internalType": "uint256",
          "name": "timestamp",
          "type": "uint256"
        },
        {
          "indexed": true,
          "internalType": "address",
          "name": "testator",
          "type": "address"
        },
        {
          "indexed": true,
          "internalType": "address",
          "name": "beneficiary",
          "type": "address"
        },
        {
          "indexed": false,
          "internalType": "address",
          "name": "token",
          "type": "address"
        },
        {
          "indexed": false,
          "internalType": "uint256",
          "name": "amount",
          "type": "uint256"
        },
        {
          "indexed": false,
          "internalType": "uint256",
          "name": "tokenId",
          "type": "uint256"
        },
        {
          "indexed": false,
          "internalType": "uint256",
          "name": "nftId",
          "type": "uint256"
        }
      ],
      "name": "LegacyTransferFailed",
      "type": "event"
    },
    {
      "anonymous": false,
      "inputs": [
        {
          "indexed": true,
          "internalType": "uint256",
          "name": "timestamp",
          "type": "uint256"
        },
        {
          "indexed": true,
          "internalType": "address",
          "name": "testator",
          "type": "address"
        },
        {
          "indexed": true,
          "internalType": "uint256",
          "name": "executionDay",
          "type": "uint256"
        }
      ],
      "name": "NewExecutionDay",
      "type": "event"
    },
    {
      "anonymous": false,
      "inputs": [
        {
          "indexed": true,
          "internalType": "address",
          "name": "previousOwner",
          "type": "address"
        },
        {
          "indexed": true,
          "internalType": "address",
          "name": "newOwner",
          "type": "address"
        }
      ],
      "name": "OwnershipTransferred",
      "type": "event"
    },
    {
      "anonymous": false,
      "inputs": [
        {
          "indexed": true,
          "internalType": "uint256",
          "name": "timestamp",
          "type": "uint256"
        },
        {
          "indexed": true,
          "internalType": "address",
          "name": "testator",
          "type": "address"
        },
        {
          "indexed": true,
          "internalType": "address",
          "name": "token",
          "type": "address"
        },
        {
          "indexed": false,
          "internalType": "address",
          "name": "beneficiary",
          "type": "address"
        },
        {
          "indexed": false,
          "internalType": "uint256",
          "name": "amount",
          "type": "uint256"
        },
        {
          "indexed": false,
          "internalType": "uint256",
          "name": "tokenId",
          "type": "uint256"
        },
        {
          "indexed": false,
          "internalType": "uint256",
          "name": "nftId",
          "type": "uint256"
        }
      ],
      "name": "RemoveLegacy",
      "type": "event"
    },
    {
      "anonymous": false,
      "inputs": [
        {
          "indexed": true,
          "internalType": "address",
          "name": "from",
          "type": "address"
        },
        {
          "indexed": true,
          "internalType": "address",
          "name": "to",
          "type": "address"
        },
        {
          "indexed": true,
          "internalType": "uint256",
          "name": "tokenId",
          "type": "uint256"
        }
      ],
      "name": "Transfer",
      "type": "event"
    },
    {
      "inputs": [],
      "name": "_tokenIdCounter",
      "outputs": [
        {
          "internalType": "uint256",
          "name": "_value",
          "type": "uint256"
        }
      ],
      "stateMutability": "view",
      "type": "function"
    },
    {
      "inputs": [
        {
          "internalType": "address",
          "name": "token",
          "type": "address"
        },
        {
          "internalType": "address",
          "name": "beneficiary",
          "type": "address"
        },
        {
          "internalType": "uint256",
          "name": "amount",
          "type": "uint256"
        },
        {
          "internalType": "uint256",
          "name": "tokenId",
          "type": "uint256"
        }
      ],
      "name": "addLegacy",
      "outputs": [],
      "stateMutability": "nonpayable",
      "type": "function"
    },
    {
      "inputs": [
        {
          "internalType": "address",
          "name": "to",
          "type": "address"
        },
        {
          "internalType": "uint256",
          "name": "tokenId",
          "type": "uint256"
        }
      ],
      "name": "approve",
      "outputs": [],
      "stateMutability": "nonpayable",
      "type": "function"
    },
    {
      "inputs": [
        {
          "internalType": "address",
          "name": "owner",
          "type": "address"
        }
      ],
      "name": "balanceOf",
      "outputs": [
        {
          "internalType": "uint256",
          "name": "",
          "type": "uint256"
        }
      ],
      "stateMutability": "view",
      "type": "function"
    },
    {
      "inputs": [],
      "name": "checkIn",
      "outputs": [],
      "stateMutability": "nonpayable",
      "type": "function"
    },
    {
      "inputs": [
        {
          "internalType": "bytes",
          "name": "",
          "type": "bytes"
        }
      ],
      "name": "checkUpkeep",
      "outputs": [
        {
          "internalType": "bool",
          "name": "upkeepNeeded",
          "type": "bool"
        },
        {
          "internalType": "bytes",
          "name": "tempData",
          "type": "bytes"
        }
      ],
      "stateMutability": "view",
      "type": "function"
    },
    {
      "inputs": [
        {
          "internalType": "address",
          "name": "",
          "type": "address"
        }
      ],
      "name": "executionDay",
      "outputs": [
        {
          "internalType": "uint256",
          "name": "",
          "type": "uint256"
        }
      ],
      "stateMutability": "view",
      "type": "function"
    },
    {
      "inputs": [
        {
          "internalType": "uint256",
          "name": "",
          "type": "uint256"
        },
        {
          "internalType": "uint256",
          "name": "",
          "type": "uint256"
        }
      ],
      "name": "executionList",
      "outputs": [
        {
          "internalType": "address",
          "name": "",
          "type": "address"
        }
      ],
      "stateMutability": "view",
      "type": "function"
    },
    {
      "inputs": [
        {
          "internalType": "uint256",
          "name": "tokenId",
          "type": "uint256"
        }
      ],
      "name": "getApproved",
      "outputs": [
        {
          "internalType": "address",
          "name": "",
          "type": "address"
        }
      ],
      "stateMutability": "view",
      "type": "function"
    },
    {
      "inputs": [
        {
          "internalType": "address",
          "name": "owner",
          "type": "address"
        },
        {
          "internalType": "address",
          "name": "operator",
          "type": "address"
        }
      ],
      "name": "isApprovedForAll",
      "outputs": [
        {
          "internalType": "bool",
          "name": "",
          "type": "bool"
        }
      ],
      "stateMutability": "view",
      "type": "function"
    },
    {
      "inputs": [
        {
          "internalType": "address",
          "name": "",
          "type": "address"
        },
        {
          "internalType": "uint256",
          "name": "",
          "type": "uint256"
        }
      ],
      "name": "legacies",
      "outputs": [
        {
          "internalType": "uint256",
          "name": "",
          "type": "uint256"
        }
      ],
      "stateMutability": "view",
      "type": "function"
    },
    {
      "inputs": [
        {
          "internalType": "address",
          "name": "testator",
          "type": "address"
        }
      ],
      "name": "legacyCount",
      "outputs": [
        {
          "internalType": "uint256",
          "name": "",
          "type": "uint256"
        }
      ],
      "stateMutability": "view",
      "type": "function"
    },
    {
      "inputs": [
        {
          "internalType": "uint256",
          "name": "",
          "type": "uint256"
        }
      ],
      "name": "legacyNFTs",
      "outputs": [
        {
          "internalType": "address",
          "name": "testator",
          "type": "address"
        },
        {
          "internalType": "address",
          "name": "token",
          "type": "address"
        },
        {
          "internalType": "address",
          "name": "beneficiary",
          "type": "address"
        },
        {
          "internalType": "uint256",
          "name": "amount",
          "type": "uint256"
        },
        {
          "internalType": "uint256",
          "name": "tokenId",
          "type": "uint256"
        }
      ],
      "stateMutability": "view",
      "type": "function"
    },
    {
      "inputs": [],
      "name": "name",
      "outputs": [
        {
          "internalType": "string",
          "name": "",
          "type": "string"
        }
      ],
      "stateMutability": "view",
      "type": "function"
    },
    {
      "inputs": [],
      "name": "owner",
      "outputs": [
        {
          "internalType": "address",
          "name": "",
          "type": "address"
        }
      ],
      "stateMutability": "view",
      "type": "function"
    },
    {
      "inputs": [
        {
          "internalType": "uint256",
          "name": "tokenId",
          "type": "uint256"
        }
      ],
      "name": "ownerOf",
      "outputs": [
        {
          "internalType": "address",
          "name": "",
          "type": "address"
        }
      ],
      "stateMutability": "view",
      "type": "function"
    },
    {
      "inputs": [
        {
          "internalType": "bytes",
          "name": "",
          "type": "bytes"
        }
      ],
      "name": "performUpkeep",
      "outputs": [],
      "stateMutability": "nonpayable",
      "type": "function"
    },
    {
      "inputs": [
        {
          "internalType": "uint256",
          "name": "position",
          "type": "uint256"
        }
      ],
      "name": "removeLegacy",
      "outputs": [],
      "stateMutability": "nonpayable",
      "type": "function"
    },
    {
      "inputs": [],
      "name": "renounceOwnership",
      "outputs": [],
      "stateMutability": "nonpayable",
      "type": "function"
    },
    {
      "inputs": [
        {
          "internalType": "address",
          "name": "from",
          "type": "address"
        },
        {
          "internalType": "address",
          "name": "to",
          "type": "address"
        },
        {
          "internalType": "uint256",
          "name": "tokenId",
          "type": "uint256"
        }
      ],
      "name": "safeTransferFrom",
      "outputs": [],
      "stateMutability": "nonpayable",
      "type": "function"
    },
    {
      "inputs": [
        {
          "internalType": "address",
          "name": "from",
          "type": "address"
        },
        {
          "internalType": "address",
          "name": "to",
          "type": "address"
        },
        {
          "internalType": "uint256",
          "name": "tokenId",
          "type": "uint256"
        },
        {
          "internalType": "bytes",
          "name": "data",
          "type": "bytes"
        }
      ],
      "name": "safeTransferFrom",
      "outputs": [],
      "stateMutability": "nonpayable",
      "type": "function"
    },
    {
      "inputs": [
        {
          "internalType": "address",
          "name": "operator",
          "type": "address"
        },
        {
          "internalType": "bool",
          "name": "approved",
          "type": "bool"
        }
      ],
      "name": "setApprovalForAll",
      "outputs": [],
      "stateMutability": "nonpayable",
      "type": "function"
    },
    {
      "inputs": [
        {
          "internalType": "bytes4",
          "name": "interfaceId",
          "type": "bytes4"
        }
      ],
      "name": "supportsInterface",
      "outputs": [
        {
          "internalType": "bool",
          "name": "",
          "type": "bool"
        }
      ],
      "stateMutability": "view",
      "type": "function"
    },
    {
      "inputs": [],
      "name": "symbol",
      "outputs": [
        {
          "internalType": "string",
          "name": "",
          "type": "string"
        }
      ],
      "stateMutability": "view",
      "type": "function"
    },
    {
      "inputs": [
        {
          "internalType": "uint256",
          "name": "tokenId",
          "type": "uint256"
        }
      ],
      "name": "tokenURI",
      "outputs": [
        {
          "internalType": "string",
          "name": "",
          "type": "string"
        }
      ],
      "stateMutability": "view",
      "type": "function"
    },
    {
      "inputs": [
        {
          "internalType": "address",
          "name": "from",
          "type": "address"
        },
        {
          "internalType": "address",
          "name": "to",
          "type": "address"
        },
        {
          "internalType": "uint256",
          "name": "tokenId",
          "type": "uint256"
        }
      ],
      "name": "transferFrom",
      "outputs": [],
      "stateMutability": "nonpayable",
      "type": "function"
    },
    {
      "inputs": [
        {
          "internalType": "address",
          "name": "newOwner",
          "type": "address"
        }
      ],
      "name": "transferOwnership",
      "outputs": [],
      "stateMutability": "nonpayable",
      "type": "function"
    },
    {
      "inputs": [
        {
          "internalType": "uint256",
          "name": "day",
          "type": "uint256"
        }
      ],
      "name": "willsToExecuteInDay",
      "outputs": [
        {
          "internalType": "bool",
          "name": "",
          "type": "bool"
        }
      ],
      "stateMutability": "view",
      "type": "function"
    },
    {
      "inputs": [],
      "name": "withdraw",
      "outputs": [],
      "stateMutability": "nonpayable",
      "type": "function"
    },
    {
      "inputs": [
        {
          "internalType": "contract IERC1155",
          "name": "_tokenAddress",
          "type": "address"
        },
        {
          "internalType": "uint256",
          "name": "_id",
          "type": "uint256"
        },
        {
          "internalType": "uint256",
          "name": "_amount",
          "type": "uint256"
        }
      ],
      "name": "withdraw1155NFT",
      "outputs": [],
      "stateMutability": "nonpayable",
      "type": "function"
    },
    {
      "inputs": [
        {
          "internalType": "contract IERC721",
          "name": "_tokenAddress",
          "type": "address"
        },
        {
          "internalType": "uint256",
          "name": "_id",
          "type": "uint256"
        }
      ],
      "name": "withdraw721NFT",
      "outputs": [],
      "stateMutability": "nonpayable",
      "type": "function"
    },
    {
      "inputs": [
        {
          "internalType": "contract IERC20",
          "name": "_tokenAddress",
          "type": "address"
        }
      ],
      "name": "withdrawToken",
      "outputs": [],
      "stateMutability": "nonpayable",
      "type": "function"
    }
  ],
  "bytecode": "0x60806040523480156200001157600080fd5b506040518060400160405280600681526020017f496e6361736500000000000000000000000000000000000000000000000000008152506040518060400160405280600381526020017f45585000000000000000000000000000000000000000000000000000000000008152506200009e62000092620000e860201b60201c565b620000f060201b60201c565b600180819055508160029081620000b6919062000444565b508060039081620000c8919062000444565b505050620000e26008620001b460201b620020511760201c565b6200052b565b600033905090565b60008060009054906101000a900473ffffffffffffffffffffffffffffffffffffffff169050816000806101000a81548173ffffffffffffffffffffffffffffffffffffffff021916908373ffffffffffffffffffffffffffffffffffffffff1602179055508173ffffffffffffffffffffffffffffffffffffffff168173ffffffffffffffffffffffffffffffffffffffff167f8be0079c531659141344cd1fd0a4f28419497f9722a3daafe3b4186f6b6457e060405160405180910390a35050565b6001816000016000828254019250508190555050565b600081519050919050565b7f4e487b7100000000000000000000000000000000000000000000000000000000600052604160045260246000fd5b7f4e487b7100000000000000000000000000000000000000000000000000000000600052602260045260246000fd5b600060028204905060018216806200024c57607f821691505b60208210810362000262576200026162000204565b5b50919050565b60008190508160005260206000209050919050565b60006020601f8301049050919050565b600082821b905092915050565b600060088302620002cc7fffffffffffffffffffffffffffffffffffffffffffffffffffffffffffffffff826200028d565b620002d886836200028d565b95508019841693508086168417925050509392505050565b6000819050919050565b6000819050919050565b6000620003256200031f6200031984620002f0565b620002fa565b620002f0565b9050919050565b6000819050919050565b620003418362000304565b6200035962000350826200032c565b8484546200029a565b825550505050565b600090565b6200037062000361565b6200037d81848462000336565b505050565b5b81811015620003a5576200039960008262000366565b60018101905062000383565b5050565b601f821115620003f457620003be8162000268565b620003c9846200027d565b81016020851015620003d9578190505b620003f1620003e8856200027d565b83018262000382565b50505b505050565b600082821c905092915050565b60006200041960001984600802620003f9565b1980831691505092915050565b600062000434838362000406565b9150826002028217905092915050565b6200044f82620001ca565b67ffffffffffffffff8111156200046b576200046a620001d5565b5b62000477825462000233565b62000484828285620003a9565b600060209050601f831160018114620004bc5760008415620004a7578287015190505b620004b3858262000426565b86555062000523565b601f198416620004cc8662000268565b60005b82811015620004f657848901518255600182019150602085019450602081019050620004cf565b8683101562000516578489015162000512601f89168262000406565b8355505b6001600288020188555050505b505050505050565b615de8806200053b6000396000f3fe608060405234801561001057600080fd5b50600436106101f05760003560e01c8063715018a61161010f578063a22cb465116100a2578063cfc3ebe711610071578063cfc3ebe7146105a4578063e985e9c5146105d4578063f02da65f14610604578063f2fde38b14610634576101f0565b8063a22cb46514610520578063b88d4fde1461053c578063c3bb1edc14610558578063c87b56dd14610574576101f0565b80638e2003ca116100de5780638e2003ca1461048257806394d7729f146104b257806395d89b41146104e6578063a1a8493114610504576101f0565b8063715018a61461042057806384c4bd4b1461042a57806389476069146104485780638da5cb5b14610464576101f0565b80634585e33b1161018757806366484fcf1161015657806366484fcf146103735780636aac353f1461038f5780636e04ff0d146103bf57806370a08231146103f0576101f0565b80634585e33b146102db5780634cd37174146102f757806353190ec5146103275780636352211e14610343576101f0565b8063183ff085116101c3578063183ff0851461028f57806323b872dd146102995780633ccfd60b146102b557806342842e0e146102bf576101f0565b806301ffc9a7146101f557806306fdde0314610225578063081812fc14610243578063095ea7b314610273575b600080fd5b61020f600480360381019061020a9190613e45565b610650565b60405161021c9190613e8d565b60405180910390f35b61022d610732565b60405161023a9190613f38565b60405180910390f35b61025d60048036038101906102589190613f90565b6107c4565b60405161026a9190613ffe565b60405180910390f35b61028d60048036038101906102889190614045565b61080a565b005b610297610921565b005b6102b360048036038101906102ae9190614085565b610e5a565b005b6102bd610eba565b005b6102d960048036038101906102d49190614085565b610f3b565b005b6102f560048036038101906102f0919061413d565b610f5b565b005b610311600480360381019061030c9190613f90565b610f93565b60405161031e9190613e8d565b60405180910390f35b610341600480360381019061033c919061418a565b610fb5565b005b61035d60048036038101906103589190613f90565b611371565b60405161036a9190613ffe565b60405180910390f35b61038d60048036038101906103889190613f90565b611422565b005b6103a960048036038101906103a491906141f1565b61183e565b6040516103b69190613ffe565b60405180910390f35b6103d960048036038101906103d4919061413d565b61188c565b6040516103e7929190614286565b60405180910390f35b61040a600480360381019061040591906142b6565b6118d0565b60405161041791906142f2565b60405180910390f35b610428611987565b005b61043261199b565b60405161043f91906142f2565b60405180910390f35b610462600480360381019061045d919061434b565b6119a7565b005b61046c611ae8565b6040516104799190613ffe565b60405180910390f35b61049c600480360381019061049791906142b6565b611b11565b6040516104a991906142f2565b60405180910390f35b6104cc60048036038101906104c79190613f90565b611b5d565b6040516104dd959493929190614378565b60405180910390f35b6104ee611bf3565b6040516104fb9190613f38565b60405180910390f35b61051e60048036038101906105199190614409565b611c85565b005b61053a60048036038101906105359190614488565b611d03565b005b610556600480360381019061055191906145f8565b611d19565b005b610572600480360381019061056d91906146b9565b611d7b565b005b61058e60048036038101906105899190613f90565b611df6565b60405161059b9190613f38565b60405180910390f35b6105be60048036038101906105b99190614045565b611ef1565b6040516105cb91906142f2565b60405180910390f35b6105ee60048036038101906105e991906146f9565b611f22565b6040516105fb9190613e8d565b60405180910390f35b61061e600480360381019061061991906142b6565b611fb6565b60405161062b91906142f2565b60405180910390f35b61064e600480360381019061064991906142b6565b611fce565b005b60007f80ac58cd000000000000000000000000000000000000000000000000000000007bffffffffffffffffffffffffffffffffffffffffffffffffffffffff1916827bffffffffffffffffffffffffffffffffffffffffffffffffffffffff1916148061071b57507f5b5e139f000000000000000000000000000000000000000000000000000000007bffffffffffffffffffffffffffffffffffffffffffffffffffffffff1916827bffffffffffffffffffffffffffffffffffffffffffffffffffffffff1916145b8061072b575061072a82612067565b5b9050919050565b60606002805461074190614768565b80601f016020809104026020016040519081016040528092919081815260200182805461076d90614768565b80156107ba5780601f1061078f576101008083540402835291602001916107ba565b820191906000526020600020905b81548152906001019060200180831161079d57829003601f168201915b5050505050905090565b60006107cf826120d1565b6006600083815260200190815260200160002060009054906101000a900473ffffffffffffffffffffffffffffffffffffffff169050919050565b600061081582611371565b90508073ffffffffffffffffffffffffffffffffffffffff168373ffffffffffffffffffffffffffffffffffffffff1603610885576040517f08c379a000000000000000000000000000000000000000000000000000000000815260040161087c9061480b565b60405180910390fd5b8073ffffffffffffffffffffffffffffffffffffffff166108a461211c565b73ffffffffffffffffffffffffffffffffffffffff1614806108d357506108d2816108cd61211c565b611f22565b5b610912576040517f08c379a00000000000000000000000000000000000000000000000000000000081526004016109099061489d565b60405180910390fd5b61091c8383612124565b505050565b6000600b60003373ffffffffffffffffffffffffffffffffffffffff1673ffffffffffffffffffffffffffffffffffffffff168152602001908152602001600020805490500361099d576040517f898073a700000000000000000000000000000000000000000000000000000000815260040160405180910390fd5b6000600960003373ffffffffffffffffffffffffffffffffffffffff1673ffffffffffffffffffffffffffffffffffffffff1681526020019081526020016000205490506109f862015180426109f391906148ec565b6121dd565b600960003373ffffffffffffffffffffffffffffffffffffffff1673ffffffffffffffffffffffffffffffffffffffff168152602001908152602001600020819055506000600a60008381526020019081526020016000208054905090506000811115610d1f573373ffffffffffffffffffffffffffffffffffffffff16600a6000848152602001908152602001600020600183610a9691906148ec565b81548110610aa757610aa6614920565b5b9060005260206000200160009054906101000a900473ffffffffffffffffffffffffffffffffffffffff1673ffffffffffffffffffffffffffffffffffffffff1603610b4a57600a6000838152602001908152602001600020805480610b1057610b0f61494f565b5b6001900381819060005260206000200160006101000a81549073ffffffffffffffffffffffffffffffffffffffff02191690559055610d1e565b60005b600182610b5a91906148ec565b811015610cc4573373ffffffffffffffffffffffffffffffffffffffff16600a60008581526020019081526020016000208281548110610b9d57610b9c614920565b5b9060005260206000200160009054906101000a900473ffffffffffffffffffffffffffffffffffffffff1673ffffffffffffffffffffffffffffffffffffffff1603610cb157600a6000848152602001908152602001600020600183610c0391906148ec565b81548110610c1457610c13614920565b5b9060005260206000200160009054906101000a900473ffffffffffffffffffffffffffffffffffffffff16600a60008581526020019081526020016000208281548110610c6457610c63614920565b5b9060005260206000200160006101000a81548173ffffffffffffffffffffffffffffffffffffffff021916908373ffffffffffffffffffffffffffffffffffffffff160217905550610cc4565b8080610cbc9061497e565b915050610b4d565b50600a6000838152602001908152602001600020805480610ce857610ce761494f565b5b6001900381819060005260206000200160006101000a81549073ffffffffffffffffffffffffffffffffffffffff021916905590555b5b600a6000600960003373ffffffffffffffffffffffffffffffffffffffff1673ffffffffffffffffffffffffffffffffffffffff168152602001908152602001600020548152602001908152602001600020339080600181540180825580915050600190039060005260206000200160009091909190916101000a81548173ffffffffffffffffffffffffffffffffffffffff021916908373ffffffffffffffffffffffffffffffffffffffff160217905550600960003373ffffffffffffffffffffffffffffffffffffffff1673ffffffffffffffffffffffffffffffffffffffff168152602001908152602001600020543373ffffffffffffffffffffffffffffffffffffffff16427fa433db6f15c439e04fa16b50313c8372f1bf5298f8840ada956a58983613819e60405160405180910390a45050565b610e6b610e6561211c565b82612202565b610eaa576040517f08c379a0000000000000000000000000000000000000000000000000000000008152600401610ea190614a38565b60405180910390fd5b610eb5838383612297565b505050565b610ec26124fd565b60003373ffffffffffffffffffffffffffffffffffffffff1647604051610ee890614a89565b60006040518083038185875af1925050503d8060008114610f25576040519150601f19603f3d011682016040523d82523d6000602084013e610f2a565b606091505b5050905080610f3857600080fd5b50565b610f5683838360405180602001604052806000815250611d19565b505050565b6000610f746201518042610f6f91906148ec565b6121dd565b9050610f7f81610f93565b15610f8e57610f8d8161257b565b5b505050565b600080600a600084815260200190815260200160002080549050119050919050565b600073ffffffffffffffffffffffffffffffffffffffff168473ffffffffffffffffffffffffffffffffffffffff16148061101c5750600073ffffffffffffffffffffffffffffffffffffffff168373ffffffffffffffffffffffffffffffffffffffff16145b8061103357506000821480156110325750600081145b5b1561106a576040517fd9f24a3800000000000000000000000000000000000000000000000000000000815260040160405180910390fd5b60006110766008612722565b90506110828482612730565b61108c6008612051565b600080600960003373ffffffffffffffffffffffffffffffffffffffff1673ffffffffffffffffffffffffffffffffffffffff1681526020019081526020016000205414801561111e57506000600b60003373ffffffffffffffffffffffffffffffffffffffff1673ffffffffffffffffffffffffffffffffffffffff16815260200190815260200160002080549050145b90506040518060a001604052803373ffffffffffffffffffffffffffffffffffffffff1681526020018773ffffffffffffffffffffffffffffffffffffffff1681526020018673ffffffffffffffffffffffffffffffffffffffff16815260200185815260200184815250600c600084815260200190815260200160002060008201518160000160006101000a81548173ffffffffffffffffffffffffffffffffffffffff021916908373ffffffffffffffffffffffffffffffffffffffff16021790555060208201518160010160006101000a81548173ffffffffffffffffffffffffffffffffffffffff021916908373ffffffffffffffffffffffffffffffffffffffff16021790555060408201518160020160006101000a81548173ffffffffffffffffffffffffffffffffffffffff021916908373ffffffffffffffffffffffffffffffffffffffff1602179055506060820151816003015560808201518160040155905050600b60003373ffffffffffffffffffffffffffffffffffffffff1673ffffffffffffffffffffffffffffffffffffffff1681526020019081526020016000208290806001815401808255809150506001900390600052602060002001600090919091909150558573ffffffffffffffffffffffffffffffffffffffff163373ffffffffffffffffffffffffffffffffffffffff16427f6ea57cf2d79ffa532a2740a50a9c2854a616487407f261980de9190108d558de888888886040516113529493929190614a9e565b60405180910390a4801561136957611368610921565b5b505050505050565b6000806004600084815260200190815260200160002060009054906101000a900473ffffffffffffffffffffffffffffffffffffffff169050600073ffffffffffffffffffffffffffffffffffffffff168173ffffffffffffffffffffffffffffffffffffffff1603611419576040517f08c379a000000000000000000000000000000000000000000000000000000000815260040161141090614b2f565b60405180910390fd5b80915050919050565b600b60003373ffffffffffffffffffffffffffffffffffffffff1673ffffffffffffffffffffffffffffffffffffffff16815260200190815260200160002080549050811061149d576040517fd9f24a3800000000000000000000000000000000000000000000000000000000815260040160405180910390fd5b6000600b60003373ffffffffffffffffffffffffffffffffffffffff1673ffffffffffffffffffffffffffffffffffffffff16815260200190815260200160002082815481106114f0576114ef614920565b5b906000526020600020015490506000600c600083815260200190815260200160002090506001600b60003373ffffffffffffffffffffffffffffffffffffffff1673ffffffffffffffffffffffffffffffffffffffff1681526020019081526020016000208054905061156391906148ec565b83101561167457600b60003373ffffffffffffffffffffffffffffffffffffffff1673ffffffffffffffffffffffffffffffffffffffff1681526020019081526020016000206001600b60003373ffffffffffffffffffffffffffffffffffffffff1673ffffffffffffffffffffffffffffffffffffffff168152602001908152602001600020805490506115f891906148ec565b8154811061160957611608614920565b5b9060005260206000200154600b60003373ffffffffffffffffffffffffffffffffffffffff1673ffffffffffffffffffffffffffffffffffffffff168152602001908152602001600020848154811061166557611664614920565b5b90600052602060002001819055505b600b60003373ffffffffffffffffffffffffffffffffffffffff1673ffffffffffffffffffffffffffffffffffffffff1681526020019081526020016000208054806116c3576116c261494f565b5b600190038181906000526020600020016000905590556116e28261274e565b8060010160009054906101000a900473ffffffffffffffffffffffffffffffffffffffff1673ffffffffffffffffffffffffffffffffffffffff163373ffffffffffffffffffffffffffffffffffffffff16427fe8335cf26fd54c097ee267e1b4d0aa424b5a93e9b5b124319bc609ef14fa7a658460020160009054906101000a900473ffffffffffffffffffffffffffffffffffffffff1685600301548660040154886040516117969493929190614a9e565b60405180910390a4600c6000838152602001908152602001600020600080820160006101000a81549073ffffffffffffffffffffffffffffffffffffffff02191690556001820160006101000a81549073ffffffffffffffffffffffffffffffffffffffff02191690556002820160006101000a81549073ffffffffffffffffffffffffffffffffffffffff0219169055600382016000905560048201600090555050505050565b600a602052816000526040600020818154811061185a57600080fd5b906000526020600020016000915091509054906101000a900473ffffffffffffffffffffffffffffffffffffffff1681565b6000606060006118a962015180426118a491906148ec565b6121dd565b90506118b481610f93565b9250604051806020016040528060008152509150509250929050565b60008073ffffffffffffffffffffffffffffffffffffffff168273ffffffffffffffffffffffffffffffffffffffff1603611940576040517f08c379a000000000000000000000000000000000000000000000000000000000815260040161193790614bc1565b60405180910390fd5b600560008373ffffffffffffffffffffffffffffffffffffffff1673ffffffffffffffffffffffffffffffffffffffff168152602001908152602001600020549050919050565b61198f6124fd565b611999600061286b565b565b60088060000154905081565b6119af6124fd565b8073ffffffffffffffffffffffffffffffffffffffff1663a9059cbb338373ffffffffffffffffffffffffffffffffffffffff166370a08231336040518263ffffffff1660e01b8152600401611a059190613ffe565b602060405180830381865afa158015611a22573d6000803e3d6000fd5b505050506040513d601f19601f82011682018060405250810190611a469190614bf6565b6040518363ffffffff1660e01b8152600401611a63929190614c23565b6020604051808303816000875af1158015611a82573d6000803e3d6000fd5b505050506040513d601f19601f82011682018060405250810190611aa69190614c61565b611ae5576040517f08c379a0000000000000000000000000000000000000000000000000000000008152600401611adc90614cda565b60405180910390fd5b50565b60008060009054906101000a900473ffffffffffffffffffffffffffffffffffffffff16905090565b6000600b60008373ffffffffffffffffffffffffffffffffffffffff1673ffffffffffffffffffffffffffffffffffffffff168152602001908152602001600020805490509050919050565b600c6020528060005260406000206000915090508060000160009054906101000a900473ffffffffffffffffffffffffffffffffffffffff16908060010160009054906101000a900473ffffffffffffffffffffffffffffffffffffffff16908060020160009054906101000a900473ffffffffffffffffffffffffffffffffffffffff16908060030154908060040154905085565b606060038054611c0290614768565b80601f0160208091040260200160405190810160405280929190818152602001828054611c2e90614768565b8015611c7b5780601f10611c5057610100808354040283529160200191611c7b565b820191906000526020600020905b815481529060010190602001808311611c5e57829003601f168201915b5050505050905090565b611c8d6124fd565b8273ffffffffffffffffffffffffffffffffffffffff1663f242432a303385856040518563ffffffff1660e01b8152600401611ccc9493929190614d1d565b600060405180830381600087803b158015611ce657600080fd5b505af1158015611cfa573d6000803e3d6000fd5b50505050505050565b611d15611d0e61211c565b838361292f565b5050565b611d2a611d2461211c565b83612202565b611d69576040517f08c379a0000000000000000000000000000000000000000000000000000000008152600401611d6090614a38565b60405180910390fd5b611d7584848484612a9b565b50505050565b611d836124fd565b8173ffffffffffffffffffffffffffffffffffffffff166323b872dd3033846040518463ffffffff1660e01b8152600401611dc093929190614d75565b600060405180830381600087803b158015611dda57600080fd5b505af1158015611dee573d6000803e3d6000fd5b505050505050565b6060611e0182612af7565b611e40576040517f08c379a0000000000000000000000000000000000000000000000000000000008152600401611e3790614df8565b60405180910390fd5b6000600c60008481526020019081526020016000209050611ee98160000160009054906101000a900473ffffffffffffffffffffffffffffffffffffffff168260010160009054906101000a900473ffffffffffffffffffffffffffffffffffffffff168360020160009054906101000a900473ffffffffffffffffffffffffffffffffffffffff168460030154856004015488611edc610732565b611ee4611bf3565b612b63565b915050919050565b600b6020528160005260406000208181548110611f0d57600080fd5b90600052602060002001600091509150505481565b6000600760008473ffffffffffffffffffffffffffffffffffffffff1673ffffffffffffffffffffffffffffffffffffffff16815260200190815260200160002060008373ffffffffffffffffffffffffffffffffffffffff1673ffffffffffffffffffffffffffffffffffffffff16815260200190815260200160002060009054906101000a900460ff16905092915050565b60096020528060005260406000206000915090505481565b611fd66124fd565b600073ffffffffffffffffffffffffffffffffffffffff168173ffffffffffffffffffffffffffffffffffffffff1603612045576040517f08c379a000000000000000000000000000000000000000000000000000000000815260040161203c90614e8a565b60405180910390fd5b61204e8161286b565b50565b6001816000016000828254019250508190555050565b60007f01ffc9a7000000000000000000000000000000000000000000000000000000007bffffffffffffffffffffffffffffffffffffffffffffffffffffffff1916827bffffffffffffffffffffffffffffffffffffffffffffffffffffffff1916149050919050565b6120da81612af7565b612119576040517f08c379a000000000000000000000000000000000000000000000000000000000815260040161211090614b2f565b60405180910390fd5b50565b600033905090565b816006600083815260200190815260200160002060006101000a81548173ffffffffffffffffffffffffffffffffffffffff021916908373ffffffffffffffffffffffffffffffffffffffff160217905550808273ffffffffffffffffffffffffffffffffffffffff1661219783611371565b73ffffffffffffffffffffffffffffffffffffffff167f8c5be1e5ebec7d5bd14f71427d1e84f3dd0314c0f7b2291e5b200ac8c7c3b92560405160405180910390a45050565b600061016d62015180836121f19190614ed9565b6121fb9190614f0a565b9050919050565b60008061220e83611371565b90508073ffffffffffffffffffffffffffffffffffffffff168473ffffffffffffffffffffffffffffffffffffffff161480612250575061224f8185611f22565b5b8061228e57508373ffffffffffffffffffffffffffffffffffffffff16612276846107c4565b73ffffffffffffffffffffffffffffffffffffffff16145b91505092915050565b8273ffffffffffffffffffffffffffffffffffffffff166122b782611371565b73ffffffffffffffffffffffffffffffffffffffff161461230d576040517f08c379a000000000000000000000000000000000000000000000000000000000815260040161230490614fad565b60405180910390fd5b600073ffffffffffffffffffffffffffffffffffffffff168273ffffffffffffffffffffffffffffffffffffffff160361237c576040517f08c379a00000000000000000000000000000000000000000000000000000000081526004016123739061503f565b60405180910390fd5b612387838383612e61565b612392600082612124565b6001600560008573ffffffffffffffffffffffffffffffffffffffff1673ffffffffffffffffffffffffffffffffffffffff16815260200190815260200160002060008282546123e291906148ec565b925050819055506001600560008473ffffffffffffffffffffffffffffffffffffffff1673ffffffffffffffffffffffffffffffffffffffff1681526020019081526020016000206000828254612439919061505f565b92505081905550816004600083815260200190815260200160002060006101000a81548173ffffffffffffffffffffffffffffffffffffffff021916908373ffffffffffffffffffffffffffffffffffffffff160217905550808273ffffffffffffffffffffffffffffffffffffffff168473ffffffffffffffffffffffffffffffffffffffff167fddf252ad1be2c89b69c2b068fc378daa952ba7f163c4a11628f55a4df523b3ef60405160405180910390a46124f8838383612f12565b505050565b61250561211c565b73ffffffffffffffffffffffffffffffffffffffff16612523611ae8565b73ffffffffffffffffffffffffffffffffffffffff1614612579576040517f08c379a0000000000000000000000000000000000000000000000000000000008152600401612570906150df565b60405180910390fd5b565b6002600154036125c0576040517f08c379a00000000000000000000000000000000000000000000000000000000081526004016125b79061514b565b60405180910390fd5b60026001819055506000600a60008381526020019081526020016000208054905003156127185760005b600a6000838152602001908152602001600020805490508110156126f757600073ffffffffffffffffffffffffffffffffffffffff16600a6000848152602001908152602001600020828154811061264557612644614920565b5b9060005260206000200160009054906101000a900473ffffffffffffffffffffffffffffffffffffffff1673ffffffffffffffffffffffffffffffffffffffff16146126e4576126e3600a600084815260200190815260200160002082815481106126b3576126b2614920565b5b9060005260206000200160009054906101000a900473ffffffffffffffffffffffffffffffffffffffff16612f17565b5b80806126ef9061497e565b9150506125ea565b50600a600082815260200190815260200160002060006127179190613d7a565b5b6001808190555050565b600081600001549050919050565b61274a82826040518060200160405280600081525061341b565b5050565b600061275982611371565b905061276781600084612e61565b612772600083612124565b6001600560008373ffffffffffffffffffffffffffffffffffffffff1673ffffffffffffffffffffffffffffffffffffffff16815260200190815260200160002060008282546127c291906148ec565b925050819055506004600083815260200190815260200160002060006101000a81549073ffffffffffffffffffffffffffffffffffffffff021916905581600073ffffffffffffffffffffffffffffffffffffffff168273ffffffffffffffffffffffffffffffffffffffff167fddf252ad1be2c89b69c2b068fc378daa952ba7f163c4a11628f55a4df523b3ef60405160405180910390a461286781600084612f12565b5050565b60008060009054906101000a900473ffffffffffffffffffffffffffffffffffffffff169050816000806101000a81548173ffffffffffffffffffffffffffffffffffffffff021916908373ffffffffffffffffffffffffffffffffffffffff1602179055508173ffffffffffffffffffffffffffffffffffffffff168173ffffffffffffffffffffffffffffffffffffffff167f8be0079c531659141344cd1fd0a4f28419497f9722a3daafe3b4186f6b6457e060405160405180910390a35050565b8173ffffffffffffffffffffffffffffffffffffffff168373ffffffffffffffffffffffffffffffffffffffff160361299d576040517f08c379a0000000000000000000000000000000000000000000000000000000008152600401612994906151b7565b60405180910390fd5b80600760008573ffffffffffffffffffffffffffffffffffffffff1673ffffffffffffffffffffffffffffffffffffffff16815260200190815260200160002060008473ffffffffffffffffffffffffffffffffffffffff1673ffffffffffffffffffffffffffffffffffffffff16815260200190815260200160002060006101000a81548160ff0219169083151502179055508173ffffffffffffffffffffffffffffffffffffffff168373ffffffffffffffffffffffffffffffffffffffff167f17307eab39ab6107e8899845ad3d59bd9653f200f220920489ca2b5937696c3183604051612a8e9190613e8d565b60405180910390a3505050565b612aa6848484612297565b612ab284848484613476565b612af1576040517f08c379a0000000000000000000000000000000000000000000000000000000008152600401612ae890615249565b60405180910390fd5b50505050565b60008073ffffffffffffffffffffffffffffffffffffffff166004600084815260200190815260200160002060009054906101000a900473ffffffffffffffffffffffffffffffffffffffff1673ffffffffffffffffffffffffffffffffffffffff1614159050919050565b606080606060008703612c0e576040518060400160405280600581526020017f455243323000000000000000000000000000000000000000000000000000000081525091506040518060400160405280600581526020017f4552433230000000000000000000000000000000000000000000000000000000815250612be7896135fd565b604051602001612bf8929190615389565b6040516020818303038152906040529050612d59565b60008803612cb4576040518060400160405280600681526020017f455243373231000000000000000000000000000000000000000000000000000081525091506040518060400160405280600681526020017f4552433732310000000000000000000000000000000000000000000000000000815250612c8d886135fd565b604051602001612c9e929190615435565b6040516020818303038152906040529050612d58565b6040518060400160405280600781526020017f455243313135350000000000000000000000000000000000000000000000000081525091506040518060400160405280600781526020017f4552433131353500000000000000000000000000000000000000000000000000815250612d2b886135fd565b612d348a6135fd565b604051602001612d469392919061546f565b60405160208183030381529060405290505b5b600085612d65886135fd565b86612d77612d728761375d565b6137da565b604051602001612d8a949392919061563d565b6040516020818303038152906040529050600081612dbf8e73ffffffffffffffffffffffffffffffffffffffff16601461393d565b612de08d73ffffffffffffffffffffffffffffffffffffffff16601461393d565b612e018f73ffffffffffffffffffffffffffffffffffffffff16601461393d565b86604051602001612e16959493929190615849565b6040516020818303038152906040529050612e30816137da565b604051602001612e40919061590c565b60405160208183030381529060405294505050505098975050505050505050565b600073ffffffffffffffffffffffffffffffffffffffff168373ffffffffffffffffffffffffffffffffffffffff1614158015612ecb5750600073ffffffffffffffffffffffffffffffffffffffff168273ffffffffffffffffffffffffffffffffffffffff1614155b15612f02576040517f23cbb2b200000000000000000000000000000000000000000000000000000000815260040160405180910390fd5b612f0d838383613b79565b505050565b505050565b60005b600b60008373ffffffffffffffffffffffffffffffffffffffff1673ffffffffffffffffffffffffffffffffffffffff168152602001908152602001600020805490508110156133cc576000600b60008473ffffffffffffffffffffffffffffffffffffffff1673ffffffffffffffffffffffffffffffffffffffff1681526020019081526020016000208281548110612fb757612fb6614920565b5b906000526020600020015490506000600c600083815260200190815260200160002090506000808260040154036130bb578160010160009054906101000a900473ffffffffffffffffffffffffffffffffffffffff1673ffffffffffffffffffffffffffffffffffffffff166323b872dd868460020160009054906101000a900473ffffffffffffffffffffffffffffffffffffffff1685600301546040518463ffffffff1660e01b815260040161307193929190614d75565b6020604051808303816000875af1158015613090573d6000803e3d6000fd5b505050506040513d601f19601f820116820180604052508101906130b49190614c61565b9050613250565b600082600301540361318a578160010160009054906101000a900473ffffffffffffffffffffffffffffffffffffffff1673ffffffffffffffffffffffffffffffffffffffff166342842e0e868460020160009054906101000a900473ffffffffffffffffffffffffffffffffffffffff1685600401546040518463ffffffff1660e01b815260040161315093929190614d75565b600060405180830381600087803b15801561316a57600080fd5b505af192505050801561317b575060015b1561318557600190505b61324f565b8160010160009054906101000a900473ffffffffffffffffffffffffffffffffffffffff1673ffffffffffffffffffffffffffffffffffffffff1663f242432a868460020160009054906101000a900473ffffffffffffffffffffffffffffffffffffffff16856004015486600301546040518563ffffffff1660e01b81526004016132199493929190614d1d565b600060405180830381600087803b15801561323357600080fd5b505af1925050508015613244575060015b1561324e57600190505b5b5b80613312578160020160009054906101000a900473ffffffffffffffffffffffffffffffffffffffff1673ffffffffffffffffffffffffffffffffffffffff168573ffffffffffffffffffffffffffffffffffffffff16427f38ac674ea617efa156301feeeaafc9168b433221ece94a2eedcf92e43215353a8560010160009054906101000a900473ffffffffffffffffffffffffffffffffffffffff1686600301548760040154896040516133099493929190614a9e565b60405180910390a45b61331b8361274e565b600c6000848152602001908152602001600020600080820160006101000a81549073ffffffffffffffffffffffffffffffffffffffff02191690556001820160006101000a81549073ffffffffffffffffffffffffffffffffffffffff02191690556002820160006101000a81549073ffffffffffffffffffffffffffffffffffffffff021916905560038201600090556004820160009055505050505080806133c49061497e565b915050612f1a565b50600b60008273ffffffffffffffffffffffffffffffffffffffff1673ffffffffffffffffffffffffffffffffffffffff16815260200190815260200160002060006134189190613d9b565b50565b6134258383613b7e565b6134326000848484613476565b613471576040517f08c379a000000000000000000000000000000000000000000000000000000000815260040161346890615249565b60405180910390fd5b505050565b60006134978473ffffffffffffffffffffffffffffffffffffffff16613d57565b156135f0578373ffffffffffffffffffffffffffffffffffffffff1663150b7a026134c061211c565b8786866040518563ffffffff1660e01b81526004016134e2949392919061592e565b6020604051808303816000875af192505050801561351e57506040513d601f19601f8201168201806040525081019061351b919061598f565b60015b6135a0573d806000811461354e576040519150601f19603f3d011682016040523d82523d6000602084013e613553565b606091505b506000815103613598576040517f08c379a000000000000000000000000000000000000000000000000000000000815260040161358f90615249565b60405180910390fd5b805181602001fd5b63150b7a0260e01b7bffffffffffffffffffffffffffffffffffffffffffffffffffffffff1916817bffffffffffffffffffffffffffffffffffffffffffffffffffffffff1916149150506135f5565b600190505b949350505050565b606060008203613644576040518060400160405280600181526020017f30000000000000000000000000000000000000000000000000000000000000008152509050613758565b600082905060005b6000821461367657808061365f9061497e565b915050600a8261366f9190614ed9565b915061364c565b60008167ffffffffffffffff811115613692576136916144cd565b5b6040519080825280601f01601f1916602001820160405280156136c45781602001600182028036833780820191505090505b5090505b60008514613751576001826136dd91906148ec565b9150600a856136ec9190614f0a565b60306136f8919061505f565b60f81b81838151811061370e5761370d614920565b5b60200101907effffffffffffffffffffffffffffffffffffffffffffffffffffffffffffff1916908160001a905350600a8561374a9190614ed9565b94506136c8565b8093505050505b919050565b60606040518061020001604052806101d68152602001615bdd6101d69139826040518060400160405280601181526020017f3c2f746578743e3c2f673e3c2f7376673e0000000000000000000000000000008152506040516020016137c4939291906159bc565b6040516020818303038152906040529050919050565b606060008251036137fc57604051806020016040528060008152509050613938565b6000604051806060016040528060408152602001615b9d604091399050600060036002855161382b919061505f565b6138359190614ed9565b600461384191906159ed565b67ffffffffffffffff81111561385a576138596144cd565b5b6040519080825280601f01601f19166020018201604052801561388c5781602001600182028036833780820191505090505b509050600182016020820185865187015b808210156138f8576003820191508151603f8160121c168501518453600184019350603f81600c1c168501518453600184019350603f8160061c168501518453600184019350603f811685015184536001840193505061389d565b505060038651066001811461391457600281146139275761392f565b603d6001830353603d600283035361392f565b603d60018303535b50505080925050505b919050565b60606000600283600261395091906159ed565b61395a919061505f565b67ffffffffffffffff811115613973576139726144cd565b5b6040519080825280601f01601f1916602001820160405280156139a55781602001600182028036833780820191505090505b5090507f3000000000000000000000000000000000000000000000000000000000000000816000815181106139dd576139dc614920565b5b60200101907effffffffffffffffffffffffffffffffffffffffffffffffffffffffffffff1916908160001a9053507f780000000000000000000000000000000000000000000000000000000000000081600181518110613a4157613a40614920565b5b60200101907effffffffffffffffffffffffffffffffffffffffffffffffffffffffffffff1916908160001a90535060006001846002613a8191906159ed565b613a8b919061505f565b90505b6001811115613b2b577f3031323334353637383961626364656600000000000000000000000000000000600f861660108110613acd57613acc614920565b5b1a60f81b828281518110613ae457613ae3614920565b5b60200101907effffffffffffffffffffffffffffffffffffffffffffffffffffffffffffff1916908160001a905350600485901c945080613b2490615a2f565b9050613a8e565b5060008414613b6f576040517f08c379a0000000000000000000000000000000000000000000000000000000008152600401613b6690615aa4565b60405180910390fd5b8091505092915050565b505050565b600073ffffffffffffffffffffffffffffffffffffffff168273ffffffffffffffffffffffffffffffffffffffff1603613bed576040517f08c379a0000000000000000000000000000000000000000000000000000000008152600401613be490615b10565b60405180910390fd5b613bf681612af7565b15613c36576040517f08c379a0000000000000000000000000000000000000000000000000000000008152600401613c2d90615b7c565b60405180910390fd5b613c4260008383612e61565b6001600560008473ffffffffffffffffffffffffffffffffffffffff1673ffffffffffffffffffffffffffffffffffffffff1681526020019081526020016000206000828254613c92919061505f565b92505081905550816004600083815260200190815260200160002060006101000a81548173ffffffffffffffffffffffffffffffffffffffff021916908373ffffffffffffffffffffffffffffffffffffffff160217905550808273ffffffffffffffffffffffffffffffffffffffff16600073ffffffffffffffffffffffffffffffffffffffff167fddf252ad1be2c89b69c2b068fc378daa952ba7f163c4a11628f55a4df523b3ef60405160405180910390a4613d5360008383612f12565b5050565b6000808273ffffffffffffffffffffffffffffffffffffffff163b119050919050565b5080546000825590600052602060002090810190613d989190613dbc565b50565b5080546000825590600052602060002090810190613db99190613dbc565b50565b5b80821115613dd5576000816000905550600101613dbd565b5090565b6000604051905090565b600080fd5b600080fd5b60007fffffffff0000000000000000000000000000000000000000000000000000000082169050919050565b613e2281613ded565b8114613e2d57600080fd5b50565b600081359050613e3f81613e19565b92915050565b600060208284031215613e5b57613e5a613de3565b5b6000613e6984828501613e30565b91505092915050565b60008115159050919050565b613e8781613e72565b82525050565b6000602082019050613ea26000830184613e7e565b92915050565b600081519050919050565b600082825260208201905092915050565b60005b83811015613ee2578082015181840152602081019050613ec7565b60008484015250505050565b6000601f19601f8301169050919050565b6000613f0a82613ea8565b613f148185613eb3565b9350613f24818560208601613ec4565b613f2d81613eee565b840191505092915050565b60006020820190508181036000830152613f528184613eff565b905092915050565b6000819050919050565b613f6d81613f5a565b8114613f7857600080fd5b50565b600081359050613f8a81613f64565b92915050565b600060208284031215613fa657613fa5613de3565b5b6000613fb484828501613f7b565b91505092915050565b600073ffffffffffffffffffffffffffffffffffffffff82169050919050565b6000613fe882613fbd565b9050919050565b613ff881613fdd565b82525050565b60006020820190506140136000830184613fef565b92915050565b61402281613fdd565b811461402d57600080fd5b50565b60008135905061403f81614019565b92915050565b6000806040838503121561405c5761405b613de3565b5b600061406a85828601614030565b925050602061407b85828601613f7b565b9150509250929050565b60008060006060848603121561409e5761409d613de3565b5b60006140ac86828701614030565b93505060206140bd86828701614030565b92505060406140ce86828701613f7b565b9150509250925092565b600080fd5b600080fd5b600080fd5b60008083601f8401126140fd576140fc6140d8565b5b8235905067ffffffffffffffff81111561411a576141196140dd565b5b602083019150836001820283011115614136576141356140e2565b5b9250929050565b6000806020838503121561415457614153613de3565b5b600083013567ffffffffffffffff81111561417257614171613de8565b5b61417e858286016140e7565b92509250509250929050565b600080600080608085870312156141a4576141a3613de3565b5b60006141b287828801614030565b94505060206141c387828801614030565b93505060406141d487828801613f7b565b92505060606141e587828801613f7b565b91505092959194509250565b6000806040838503121561420857614207613de3565b5b600061421685828601613f7b565b925050602061422785828601613f7b565b9150509250929050565b600081519050919050565b600082825260208201905092915050565b600061425882614231565b614262818561423c565b9350614272818560208601613ec4565b61427b81613eee565b840191505092915050565b600060408201905061429b6000830185613e7e565b81810360208301526142ad818461424d565b90509392505050565b6000602082840312156142cc576142cb613de3565b5b60006142da84828501614030565b91505092915050565b6142ec81613f5a565b82525050565b600060208201905061430760008301846142e3565b92915050565b600061431882613fdd565b9050919050565b6143288161430d565b811461433357600080fd5b50565b6000813590506143458161431f565b92915050565b60006020828403121561436157614360613de3565b5b600061436f84828501614336565b91505092915050565b600060a08201905061438d6000830188613fef565b61439a6020830187613fef565b6143a76040830186613fef565b6143b460608301856142e3565b6143c160808301846142e3565b9695505050505050565b60006143d682613fdd565b9050919050565b6143e6816143cb565b81146143f157600080fd5b50565b600081359050614403816143dd565b92915050565b60008060006060848603121561442257614421613de3565b5b6000614430868287016143f4565b935050602061444186828701613f7b565b925050604061445286828701613f7b565b9150509250925092565b61446581613e72565b811461447057600080fd5b50565b6000813590506144828161445c565b92915050565b6000806040838503121561449f5761449e613de3565b5b60006144ad85828601614030565b92505060206144be85828601614473565b9150509250929050565b600080fd5b7f4e487b7100000000000000000000000000000000000000000000000000000000600052604160045260246000fd5b61450582613eee565b810181811067ffffffffffffffff82111715614524576145236144cd565b5b80604052505050565b6000614537613dd9565b905061454382826144fc565b919050565b600067ffffffffffffffff821115614563576145626144cd565b5b61456c82613eee565b9050602081019050919050565b82818337600083830152505050565b600061459b61459684614548565b61452d565b9050828152602081018484840111156145b7576145b66144c8565b5b6145c2848285614579565b509392505050565b600082601f8301126145df576145de6140d8565b5b81356145ef848260208601614588565b91505092915050565b6000806000806080858703121561461257614611613de3565b5b600061462087828801614030565b945050602061463187828801614030565b935050604061464287828801613f7b565b925050606085013567ffffffffffffffff81111561466357614662613de8565b5b61466f878288016145ca565b91505092959194509250565b600061468682613fdd565b9050919050565b6146968161467b565b81146146a157600080fd5b50565b6000813590506146b38161468d565b92915050565b600080604083850312156146d0576146cf613de3565b5b60006146de858286016146a4565b92505060206146ef85828601613f7b565b9150509250929050565b600080604083850312156147105761470f613de3565b5b600061471e85828601614030565b925050602061472f85828601614030565b9150509250929050565b7f4e487b7100000000000000000000000000000000000000000000000000000000600052602260045260246000fd5b6000600282049050600182168061478057607f821691505b60208210810361479357614792614739565b5b50919050565b7f4552433732313a20617070726f76616c20746f2063757272656e74206f776e6560008201527f7200000000000000000000000000000000000000000000000000000000000000602082015250565b60006147f5602183613eb3565b915061480082614799565b604082019050919050565b60006020820190508181036000830152614824816147e8565b9050919050565b7f4552433732313a20617070726f76652063616c6c6572206973206e6f7420746f60008201527f6b656e206f776e6572206e6f7220617070726f76656420666f7220616c6c0000602082015250565b6000614887603e83613eb3565b91506148928261482b565b604082019050919050565b600060208201905081810360008301526148b68161487a565b9050919050565b7f4e487b7100000000000000000000000000000000000000000000000000000000600052601160045260246000fd5b60006148f782613f5a565b915061490283613f5a565b925082820390508181111561491a576149196148bd565b5b92915050565b7f4e487b7100000000000000000000000000000000000000000000000000000000600052603260045260246000fd5b7f4e487b7100000000000000000000000000000000000000000000000000000000600052603160045260246000fd5b600061498982613f5a565b91507fffffffffffffffffffffffffffffffffffffffffffffffffffffffffffffffff82036149bb576149ba6148bd565b5b600182019050919050565b7f4552433732313a2063616c6c6572206973206e6f7420746f6b656e206f776e6560008201527f72206e6f7220617070726f766564000000000000000000000000000000000000602082015250565b6000614a22602e83613eb3565b9150614a2d826149c6565b604082019050919050565b60006020820190508181036000830152614a5181614a15565b9050919050565b600081905092915050565b50565b6000614a73600083614a58565b9150614a7e82614a63565b600082019050919050565b6000614a9482614a66565b9150819050919050565b6000608082019050614ab36000830187613fef565b614ac060208301866142e3565b614acd60408301856142e3565b614ada60608301846142e3565b95945050505050565b7f4552433732313a20696e76616c696420746f6b656e2049440000000000000000600082015250565b6000614b19601883613eb3565b9150614b2482614ae3565b602082019050919050565b60006020820190508181036000830152614b4881614b0c565b9050919050565b7f4552433732313a2061646472657373207a65726f206973206e6f74206120766160008201527f6c6964206f776e65720000000000000000000000000000000000000000000000602082015250565b6000614bab602983613eb3565b9150614bb682614b4f565b604082019050919050565b60006020820190508181036000830152614bda81614b9e565b9050919050565b600081519050614bf081613f64565b92915050565b600060208284031215614c0c57614c0b613de3565b5b6000614c1a84828501614be1565b91505092915050565b6000604082019050614c386000830185613fef565b614c4560208301846142e3565b9392505050565b600081519050614c5b8161445c565b92915050565b600060208284031215614c7757614c76613de3565b5b6000614c8584828501614c4c565b91505092915050565b7f556e61626c6520746f207472616e736665720000000000000000000000000000600082015250565b6000614cc4601283613eb3565b9150614ccf82614c8e565b602082019050919050565b60006020820190508181036000830152614cf381614cb7565b9050919050565b6000614d0760008361423c565b9150614d1282614a63565b600082019050919050565b600060a082019050614d326000830187613fef565b614d3f6020830186613fef565b614d4c60408301856142e3565b614d5960608301846142e3565b8181036080830152614d6a81614cfa565b905095945050505050565b6000606082019050614d8a6000830186613fef565b614d976020830185613fef565b614da460408301846142e3565b949350505050565b7f496e636173653a204e6f6e2d4578697374656e7420546f6b656e204944000000600082015250565b6000614de2601d83613eb3565b9150614ded82614dac565b602082019050919050565b60006020820190508181036000830152614e1181614dd5565b9050919050565b7f4f776e61626c653a206e6577206f776e657220697320746865207a65726f206160008201527f6464726573730000000000000000000000000000000000000000000000000000602082015250565b6000614e74602683613eb3565b9150614e7f82614e18565b604082019050919050565b60006020820190508181036000830152614ea381614e67565b9050919050565b7f4e487b7100000000000000000000000000000000000000000000000000000000600052601260045260246000fd5b6000614ee482613f5a565b9150614eef83613f5a565b925082614eff57614efe614eaa565b5b828204905092915050565b6000614f1582613f5a565b9150614f2083613f5a565b925082614f3057614f2f614eaa565b5b828206905092915050565b7f4552433732313a207472616e736665722066726f6d20696e636f72726563742060008201527f6f776e6572000000000000000000000000000000000000000000000000000000602082015250565b6000614f97602583613eb3565b9150614fa282614f3b565b604082019050919050565b60006020820190508181036000830152614fc681614f8a565b9050919050565b7f4552433732313a207472616e7366657220746f20746865207a65726f2061646460008201527f7265737300000000000000000000000000000000000000000000000000000000602082015250565b6000615029602483613eb3565b915061503482614fcd565b604082019050919050565b600060208201905081810360008301526150588161501c565b9050919050565b600061506a82613f5a565b915061507583613f5a565b925082820190508082111561508d5761508c6148bd565b5b92915050565b7f4f776e61626c653a2063616c6c6572206973206e6f7420746865206f776e6572600082015250565b60006150c9602083613eb3565b91506150d482615093565b602082019050919050565b600060208201905081810360008301526150f8816150bc565b9050919050565b7f5265656e7472616e637947756172643a207265656e7472616e742063616c6c00600082015250565b6000615135601f83613eb3565b9150615140826150ff565b602082019050919050565b6000602082019050818103600083015261516481615128565b9050919050565b7f4552433732313a20617070726f766520746f2063616c6c657200000000000000600082015250565b60006151a1601983613eb3565b91506151ac8261516b565b602082019050919050565b600060208201905081810360008301526151d081615194565b9050919050565b7f4552433732313a207472616e7366657220746f206e6f6e20455243373231526560008201527f63656976657220696d706c656d656e7465720000000000000000000000000000602082015250565b6000615233603283613eb3565b915061523e826151d7565b604082019050919050565b6000602082019050818103600083015261526281615226565b9050919050565b600081905092915050565b7f227d2c7b2274726169745f74797065223a22546f6b656e2054797065222c227660008201527f616c7565223a2200000000000000000000000000000000000000000000000000602082015250565b60006152d0602783615269565b91506152db82615274565b602782019050919050565b60006152f182613ea8565b6152fb8185615269565b935061530b818560208601613ec4565b80840191505092915050565b7f227d2c7b2274726169745f74797065223a22616d6f756e74222c2276616c756560008201527f223a220000000000000000000000000000000000000000000000000000000000602082015250565b6000615373602383615269565b915061537e82615317565b602382019050919050565b6000615394826152c3565b91506153a082856152e6565b91506153ab82615366565b91506153b782846152e6565b91508190509392505050565b7f227d2c7b2274726169745f74797065223a22746f6b656e4964222c2276616c7560008201527f65223a2200000000000000000000000000000000000000000000000000000000602082015250565b600061541f602483615269565b915061542a826153c3565b602482019050919050565b6000615440826152c3565b915061544c82856152e6565b915061545782615412565b915061546382846152e6565b91508190509392505050565b600061547a826152c3565b915061548682866152e6565b915061549182615412565b915061549d82856152e6565b91506154a882615366565b91506154b482846152e6565b9150819050949350505050565b7f7b226e616d65223a220000000000000000000000000000000000000000000000600082015250565b60006154f7600983615269565b9150615502826154c1565b600982019050919050565b7f2023000000000000000000000000000000000000000000000000000000000000600082015250565b6000615543600283615269565b915061554e8261550d565b600282019050919050565b7f222c2273796d626f6c223a220000000000000000000000000000000000000000600082015250565b600061558f600c83615269565b915061559a82615559565b600c82019050919050565b7f222c226465736372697074696f6e223a224578706972333a20596f7572206f6e60008201527f2d636861696e2077696c6c222c22696d616765223a2022646174613a696d616760208201527f652f7376672b786d6c3b6261736536342c000000000000000000000000000000604082015250565b6000615627605183615269565b9150615632826155a5565b605182019050919050565b6000615648826154ea565b915061565482876152e6565b915061565f82615536565b915061566b82866152e6565b915061567682615582565b915061568282856152e6565b915061568d8261561a565b915061569982846152e6565b915081905095945050505050565b7f222c2261747472696275746573223a5b7b2274726169745f74797065223a227460008201527f65737461746f72222c2276616c7565223a220000000000000000000000000000602082015250565b6000615703603283615269565b915061570e826156a7565b603282019050919050565b7f227d2c7b2274726169745f74797065223a2262656e6566696369617279222c2260008201527f76616c7565223a22000000000000000000000000000000000000000000000000602082015250565b6000615775602883615269565b915061578082615719565b602882019050919050565b7f227d2c7b2274726169745f74797065223a22746f6b656e222c2276616c75652260008201527f3a22000000000000000000000000000000000000000000000000000000000000602082015250565b60006157e7602283615269565b91506157f28261578b565b602282019050919050565b7f227d5d7d00000000000000000000000000000000000000000000000000000000600082015250565b6000615833600483615269565b915061583e826157fd565b600482019050919050565b600061585582886152e6565b9150615860826156f6565b915061586c82876152e6565b915061587782615768565b915061588382866152e6565b915061588e826157da565b915061589a82856152e6565b91506158a682846152e6565b91506158b182615826565b91508190509695505050505050565b7f646174613a6170706c69636174696f6e2f6a736f6e3b6261736536342c000000600082015250565b60006158f6601d83615269565b9150615901826158c0565b601d82019050919050565b6000615917826158e9565b915061592382846152e6565b915081905092915050565b60006080820190506159436000830187613fef565b6159506020830186613fef565b61595d60408301856142e3565b818103606083015261596f818461424d565b905095945050505050565b60008151905061598981613e19565b92915050565b6000602082840312156159a5576159a4613de3565b5b60006159b38482850161597a565b91505092915050565b60006159c882866152e6565b91506159d482856152e6565b91506159e082846152e6565b9150819050949350505050565b60006159f882613f5a565b9150615a0383613f5a565b9250828202615a1181613f5a565b91508282048414831517615a2857615a276148bd565b5b5092915050565b6000615a3a82613f5a565b915060008203615a4d57615a4c6148bd565b5b600182039050919050565b7f537472696e67733a20686578206c656e67746820696e73756666696369656e74600082015250565b6000615a8e602083613eb3565b9150615a9982615a58565b602082019050919050565b60006020820190508181036000830152615abd81615a81565b9050919050565b7f4552433732313a206d696e7420746f20746865207a65726f2061646472657373600082015250565b6000615afa602083613eb3565b9150615b0582615ac4565b602082019050919050565b60006020820190508181036000830152615b2981615aed565b9050919050565b7f4552433732313a20746f6b656e20616c7265616479206d696e74656400000000600082015250565b6000615b66601c83613eb3565b9150615b7182615b30565b602082019050919050565b60006020820190508181036000830152615b9581615b59565b905091905056fe4142434445464748494a4b4c4d4e4f505152535455565758595a6162636465666768696a6b6c6d6e6f707172737475767778797a303132333435363738392b2f3c73766720786d6c6e733d22687474703a2f2f7777772e77332e6f72672f323030302f737667222077696474683d2235303022206865696768743d22353030222076696577426f783d2230203020353030203530302220666f6e742d66616d696c793d222d6170706c652d73797374656d2c426c696e6b4d616353797374656d466f6e742c275365676f65205549272c2748656c766574696361204e657565272c417269616c2c73616e732d7365726966223e3c7265637420783d22302220793d2230222077696474683d223130302522206865696768743d2231303025222066696c6c3d2223656565222072783d2231302522202f3e3c672069643d2274657874222066696c6c3d22626c61636b2220666f6e742d73697a653d2238302220666f6e742d7765696768743d223530302220746578742d616e63686f723d226d6964646c65223e3c7465787420783d223530252220793d223430252220666f6e742d7765696768743d22373030223e494e434153453c2f746578743e3c7465787420783d223530252220793d22363525223e4c45474143593c2f746578743e3c7465787420783d223930252220793d223930252220666f6e742d73697a653d2233362220746578742d616e63686f723d22656e64223ea2646970667358221220bdffb9c4ed66f5c0052a237dbdaabcea40869c127b17997358511cc99fe5646664736f6c63430008110033",
  "linkReferences": {},
  "deployedLinkReferences": {}
}