{
    "_format": "hh-sol-artifact-1",
    "contractName": "MockToken",
    "sourceName": "contracts/MockToken.sol",
    "abi": [
        {
            "inputs": [],
            "stateMutability": "nonpayable",
            "type": "constructor"
        },
        {
            "anonymous": false,
            "inputs": [
                {
                    "indexed": true,
                    "internalType": "address",
                    "name": "owner",
                    "type": "address"
                },
                {
                    "indexed": true,
                    "internalType": "address",
                    "name": "spender",
                    "type": "address"
                },
                {
                    "indexed": false,
                    "internalType": "uint256",
                    "name": "value",
                    "type": "uint256"
                }
            ],
            "name": "Approval",
            "type": "event"
        },
        {
            "anonymous": false,
            "inputs": [
                {
                    "indexed": true,
                    "internalType": "address",
                    "name": "from",
                    "type": "address"
                },
                {
                    "indexed": true,
                    "internalType": "address",
                    "name": "to",
                    "type": "address"
                },
                {
                    "indexed": false,
                    "internalType": "uint256",
                    "name": "value",
                    "type": "uint256"
                }
            ],
            "name": "Transfer",
            "type": "event"
        },
        {
            "inputs": [
                {
                    "internalType": "address",
                    "name": "owner",
                    "type": "address"
                },
                {
                    "internalType": "address",
                    "name": "spender",
                    "type": "address"
                }
            ],
            "name": "allowance",
            "outputs": [
                {
                    "internalType": "uint256",
                    "name": "",
                    "type": "uint256"
                }
            ],
            "stateMutability": "view",
            "type": "function"
        },
        {
            "inputs": [
                {
                    "internalType": "address",
                    "name": "spender",
                    "type": "address"
                },
                {
                    "internalType": "uint256",
                    "name": "amount",
                    "type": "uint256"
                }
            ],
            "name": "approve",
            "outputs": [
                {
                    "internalType": "bool",
                    "name": "",
                    "type": "bool"
                }
            ],
            "stateMutability": "nonpayable",
            "type": "function"
        },
        {
            "inputs": [
                {
                    "internalType": "address",
                    "name": "account",
                    "type": "address"
                }
            ],
            "name": "balanceOf",
            "outputs": [
                {
                    "internalType": "uint256",
                    "name": "",
                    "type": "uint256"
                }
            ],
            "stateMutability": "view",
            "type": "function"
        },
        {
            "inputs": [],
            "name": "decimals",
            "outputs": [
                {
                    "internalType": "uint8",
                    "name": "",
                    "type": "uint8"
                }
            ],
            "stateMutability": "view",
            "type": "function"
        },
        {
            "inputs": [
                {
                    "internalType": "address",
                    "name": "spender",
                    "type": "address"
                },
                {
                    "internalType": "uint256",
                    "name": "subtractedValue",
                    "type": "uint256"
                }
            ],
            "name": "decreaseAllowance",
            "outputs": [
                {
                    "internalType": "bool",
                    "name": "",
                    "type": "bool"
                }
            ],
            "stateMutability": "nonpayable",
            "type": "function"
        },
        {
            "inputs": [
                {
                    "internalType": "address",
                    "name": "spender",
                    "type": "address"
                },
                {
                    "internalType": "uint256",
                    "name": "addedValue",
                    "type": "uint256"
                }
            ],
            "name": "increaseAllowance",
            "outputs": [
                {
                    "internalType": "bool",
                    "name": "",
                    "type": "bool"
                }
            ],
            "stateMutability": "nonpayable",
            "type": "function"
        },
        {
            "inputs": [],
            "name": "mint",
            "outputs": [],
            "stateMutability": "nonpayable",
            "type": "function"
        },
        {
            "inputs": [],
            "name": "name",
            "outputs": [
                {
                    "internalType": "string",
                    "name": "",
                    "type": "string"
                }
            ],
            "stateMutability": "view",
            "type": "function"
        },
        {
            "inputs": [],
            "name": "symbol",
            "outputs": [
                {
                    "internalType": "string",
                    "name": "",
                    "type": "string"
                }
            ],
            "stateMutability": "view",
            "type": "function"
        },
        {
            "inputs": [],
            "name": "totalSupply",
            "outputs": [
                {
                    "internalType": "uint256",
                    "name": "",
                    "type": "uint256"
                }
            ],
            "stateMutability": "view",
            "type": "function"
        },
        {
            "inputs": [
                {
                    "internalType": "address",
                    "name": "to",
                    "type": "address"
                },
                {
                    "internalType": "uint256",
                    "name": "amount",
                    "type": "uint256"
                }
            ],
            "name": "transfer",
            "outputs": [
                {
                    "internalType": "bool",
                    "name": "",
                    "type": "bool"
                }
            ],
            "stateMutability": "nonpayable",
            "type": "function"
        },
        {
            "inputs": [
                {
                    "internalType": "address",
                    "name": "from",
                    "type": "address"
                },
                {
                    "internalType": "address",
                    "name": "to",
                    "type": "address"
                },
                {
                    "internalType": "uint256",
                    "name": "amount",
                    "type": "uint256"
                }
            ],
            "name": "transferFrom",
            "outputs": [
                {
                    "internalType": "bool",
                    "name": "",
                    "type": "bool"
                }
            ],
            "stateMutability": "nonpayable",
            "type": "function"
        }
    ],
    "bytecode": "0x60806040523480156200001157600080fd5b506040518060400160405280600c81526020017f46616b65446169546f6b656e00000000000000000000000000000000000000008152506040518060400160405280600381526020017f444149000000000000000000000000000000000000000000000000000000000081525081600390816200008f9190620004ef565b508060049081620000a19190620004ef565b505050620000e433620000b9620000ea60201b60201c565b600a620000c7919062000766565b6305f5e100620000d89190620007b7565b620000f360201b60201c565b620008ee565b60006012905090565b600073ffffffffffffffffffffffffffffffffffffffff168273ffffffffffffffffffffffffffffffffffffffff160362000165576040517f08c379a00000000000000000000000000000000000000000000000000000000081526004016200015c9062000863565b60405180910390fd5b62000179600083836200026b60201b60201c565b80600260008282546200018d919062000885565b92505081905550806000808473ffffffffffffffffffffffffffffffffffffffff1673ffffffffffffffffffffffffffffffffffffffff1681526020019081526020016000206000828254620001e4919062000885565b925050819055508173ffffffffffffffffffffffffffffffffffffffff16600073ffffffffffffffffffffffffffffffffffffffff167fddf252ad1be2c89b69c2b068fc378daa952ba7f163c4a11628f55a4df523b3ef836040516200024b9190620008d1565b60405180910390a362000267600083836200027060201b60201c565b5050565b505050565b505050565b600081519050919050565b7f4e487b7100000000000000000000000000000000000000000000000000000000600052604160045260246000fd5b7f4e487b7100000000000000000000000000000000000000000000000000000000600052602260045260246000fd5b60006002820490506001821680620002f757607f821691505b6020821081036200030d576200030c620002af565b5b50919050565b60008190508160005260206000209050919050565b60006020601f8301049050919050565b600082821b905092915050565b600060088302620003777fffffffffffffffffffffffffffffffffffffffffffffffffffffffffffffffff8262000338565b62000383868362000338565b95508019841693508086168417925050509392505050565b6000819050919050565b6000819050919050565b6000620003d0620003ca620003c4846200039b565b620003a5565b6200039b565b9050919050565b6000819050919050565b620003ec83620003af565b62000404620003fb82620003d7565b84845462000345565b825550505050565b600090565b6200041b6200040c565b62000428818484620003e1565b505050565b5b8181101562000450576200044460008262000411565b6001810190506200042e565b5050565b601f8211156200049f57620004698162000313565b620004748462000328565b8101602085101562000484578190505b6200049c620004938562000328565b8301826200042d565b50505b505050565b600082821c905092915050565b6000620004c460001984600802620004a4565b1980831691505092915050565b6000620004df8383620004b1565b9150826002028217905092915050565b620004fa8262000275565b67ffffffffffffffff81111562000516576200051562000280565b5b620005228254620002de565b6200052f82828562000454565b600060209050601f83116001811462000567576000841562000552578287015190505b6200055e8582620004d1565b865550620005ce565b601f198416620005778662000313565b60005b82811015620005a1578489015182556001820191506020850194506020810190506200057a565b86831015620005c15784890151620005bd601f891682620004b1565b8355505b6001600288020188555050505b505050505050565b7f4e487b7100000000000000000000000000000000000000000000000000000000600052601160045260246000fd5b60008160011c9050919050565b6000808291508390505b600185111562000664578086048111156200063c576200063b620005d6565b5b60018516156200064c5780820291505b80810290506200065c8562000605565b94506200061c565b94509492505050565b6000826200067f576001905062000752565b816200068f576000905062000752565b8160018114620006a85760028114620006b357620006e9565b600191505062000752565b60ff841115620006c857620006c7620005d6565b5b8360020a915084821115620006e257620006e1620005d6565b5b5062000752565b5060208310610133831016604e8410600b8410161715620007235782820a9050838111156200071d576200071c620005d6565b5b62000752565b62000732848484600162000612565b925090508184048111156200074c576200074b620005d6565b5b81810290505b9392505050565b600060ff82169050919050565b600062000773826200039b565b9150620007808362000759565b9250620007af7fffffffffffffffffffffffffffffffffffffffffffffffffffffffffffffffff84846200066d565b905092915050565b6000620007c4826200039b565b9150620007d1836200039b565b9250828202620007e1816200039b565b91508282048414831517620007fb57620007fa620005d6565b5b5092915050565b600082825260208201905092915050565b7f45524332303a206d696e7420746f20746865207a65726f206164647265737300600082015250565b60006200084b601f8362000802565b9150620008588262000813565b602082019050919050565b600060208201905081810360008301526200087e816200083c565b9050919050565b600062000892826200039b565b91506200089f836200039b565b9250828201905080821115620008ba57620008b9620005d6565b5b92915050565b620008cb816200039b565b82525050565b6000602082019050620008e86000830184620008c0565b92915050565b61160480620008fe6000396000f3fe608060405234801561001057600080fd5b50600436106100b45760003560e01c80633950935111610071578063395093511461017d57806370a08231146101ad57806395d89b41146101dd578063a457c2d7146101fb578063a9059cbb1461022b578063dd62ed3e1461025b576100b4565b806306fdde03146100b9578063095ea7b3146100d75780631249c58b1461010757806318160ddd1461011157806323b872dd1461012f578063313ce5671461015f575b600080fd5b6100c161028b565b6040516100ce9190610cb5565b60405180910390f35b6100f160048036038101906100ec9190610d70565b61031d565b6040516100fe9190610dcb565b60405180910390f35b61010f610340565b005b61011961036c565b6040516101269190610df5565b60405180910390f35b61014960048036038101906101449190610e10565b610376565b6040516101569190610dcb565b60405180910390f35b6101676103a5565b6040516101749190610e7f565b60405180910390f35b61019760048036038101906101929190610d70565b6103ae565b6040516101a49190610dcb565b60405180910390f35b6101c760048036038101906101c29190610e9a565b6103e5565b6040516101d49190610df5565b60405180910390f35b6101e561042d565b6040516101f29190610cb5565b60405180910390f35b61021560048036038101906102109190610d70565b6104bf565b6040516102229190610dcb565b60405180910390f35b61024560048036038101906102409190610d70565b610536565b6040516102529190610dcb565b60405180910390f35b61027560048036038101906102709190610ec7565b610559565b6040516102829190610df5565b60405180910390f35b60606003805461029a90610f36565b80601f01602080910402602001604051908101604052809291908181526020018280546102c690610f36565b80156103135780601f106102e857610100808354040283529160200191610313565b820191906000526020600020905b8154815290600101906020018083116102f657829003601f168201915b5050505050905090565b6000806103286105e0565b90506103358185856105e8565b600191505092915050565b61036a3361034c6103a5565b600a61035891906110c9565b6103e86103659190611114565b6107b1565b565b6000600254905090565b6000806103816105e0565b905061038e858285610910565b61039985858561099c565b60019150509392505050565b60006012905090565b6000806103b96105e0565b90506103da8185856103cb8589610559565b6103d59190611156565b6105e8565b600191505092915050565b60008060008373ffffffffffffffffffffffffffffffffffffffff1673ffffffffffffffffffffffffffffffffffffffff168152602001908152602001600020549050919050565b60606004805461043c90610f36565b80601f016020809104026020016040519081016040528092919081815260200182805461046890610f36565b80156104b55780601f1061048a576101008083540402835291602001916104b5565b820191906000526020600020905b81548152906001019060200180831161049857829003601f168201915b5050505050905090565b6000806104ca6105e0565b905060006104d88286610559565b90508381101561051d576040517f08c379a0000000000000000000000000000000000000000000000000000000008152600401610514906111fc565b60405180910390fd5b61052a82868684036105e8565b60019250505092915050565b6000806105416105e0565b905061054e81858561099c565b600191505092915050565b6000600160008473ffffffffffffffffffffffffffffffffffffffff1673ffffffffffffffffffffffffffffffffffffffff16815260200190815260200160002060008373ffffffffffffffffffffffffffffffffffffffff1673ffffffffffffffffffffffffffffffffffffffff16815260200190815260200160002054905092915050565b600033905090565b600073ffffffffffffffffffffffffffffffffffffffff168373ffffffffffffffffffffffffffffffffffffffff1603610657576040517f08c379a000000000000000000000000000000000000000000000000000000000815260040161064e9061128e565b60405180910390fd5b600073ffffffffffffffffffffffffffffffffffffffff168273ffffffffffffffffffffffffffffffffffffffff16036106c6576040517f08c379a00000000000000000000000000000000000000000000000000000000081526004016106bd90611320565b60405180910390fd5b80600160008573ffffffffffffffffffffffffffffffffffffffff1673ffffffffffffffffffffffffffffffffffffffff16815260200190815260200160002060008473ffffffffffffffffffffffffffffffffffffffff1673ffffffffffffffffffffffffffffffffffffffff168152602001908152602001600020819055508173ffffffffffffffffffffffffffffffffffffffff168373ffffffffffffffffffffffffffffffffffffffff167f8c5be1e5ebec7d5bd14f71427d1e84f3dd0314c0f7b2291e5b200ac8c7c3b925836040516107a49190610df5565b60405180910390a3505050565b600073ffffffffffffffffffffffffffffffffffffffff168273ffffffffffffffffffffffffffffffffffffffff1603610820576040517f08c379a00000000000000000000000000000000000000000000000000000000081526004016108179061138c565b60405180910390fd5b61082c60008383610c1b565b806002600082825461083e9190611156565b92505081905550806000808473ffffffffffffffffffffffffffffffffffffffff1673ffffffffffffffffffffffffffffffffffffffff16815260200190815260200160002060008282546108939190611156565b925050819055508173ffffffffffffffffffffffffffffffffffffffff16600073ffffffffffffffffffffffffffffffffffffffff167fddf252ad1be2c89b69c2b068fc378daa952ba7f163c4a11628f55a4df523b3ef836040516108f89190610df5565b60405180910390a361090c60008383610c20565b5050565b600061091c8484610559565b90507fffffffffffffffffffffffffffffffffffffffffffffffffffffffffffffffff81146109965781811015610988576040517f08c379a000000000000000000000000000000000000000000000000000000000815260040161097f906113f8565b60405180910390fd5b61099584848484036105e8565b5b50505050565b600073ffffffffffffffffffffffffffffffffffffffff168373ffffffffffffffffffffffffffffffffffffffff1603610a0b576040517f08c379a0000000000000000000000000000000000000000000000000000000008152600401610a029061148a565b60405180910390fd5b600073ffffffffffffffffffffffffffffffffffffffff168273ffffffffffffffffffffffffffffffffffffffff1603610a7a576040517f08c379a0000000000000000000000000000000000000000000000000000000008152600401610a719061151c565b60405180910390fd5b610a85838383610c1b565b60008060008573ffffffffffffffffffffffffffffffffffffffff1673ffffffffffffffffffffffffffffffffffffffff16815260200190815260200160002054905081811015610b0b576040517f08c379a0000000000000000000000000000000000000000000000000000000008152600401610b02906115ae565b60405180910390fd5b8181036000808673ffffffffffffffffffffffffffffffffffffffff1673ffffffffffffffffffffffffffffffffffffffff16815260200190815260200160002081905550816000808573ffffffffffffffffffffffffffffffffffffffff1673ffffffffffffffffffffffffffffffffffffffff1681526020019081526020016000206000828254610b9e9190611156565b925050819055508273ffffffffffffffffffffffffffffffffffffffff168473ffffffffffffffffffffffffffffffffffffffff167fddf252ad1be2c89b69c2b068fc378daa952ba7f163c4a11628f55a4df523b3ef84604051610c029190610df5565b60405180910390a3610c15848484610c20565b50505050565b505050565b505050565b600081519050919050565b600082825260208201905092915050565b60005b83811015610c5f578082015181840152602081019050610c44565b60008484015250505050565b6000601f19601f8301169050919050565b6000610c8782610c25565b610c918185610c30565b9350610ca1818560208601610c41565b610caa81610c6b565b840191505092915050565b60006020820190508181036000830152610ccf8184610c7c565b905092915050565b600080fd5b600073ffffffffffffffffffffffffffffffffffffffff82169050919050565b6000610d0782610cdc565b9050919050565b610d1781610cfc565b8114610d2257600080fd5b50565b600081359050610d3481610d0e565b92915050565b6000819050919050565b610d4d81610d3a565b8114610d5857600080fd5b50565b600081359050610d6a81610d44565b92915050565b60008060408385031215610d8757610d86610cd7565b5b6000610d9585828601610d25565b9250506020610da685828601610d5b565b9150509250929050565b60008115159050919050565b610dc581610db0565b82525050565b6000602082019050610de06000830184610dbc565b92915050565b610def81610d3a565b82525050565b6000602082019050610e0a6000830184610de6565b92915050565b600080600060608486031215610e2957610e28610cd7565b5b6000610e3786828701610d25565b9350506020610e4886828701610d25565b9250506040610e5986828701610d5b565b9150509250925092565b600060ff82169050919050565b610e7981610e63565b82525050565b6000602082019050610e946000830184610e70565b92915050565b600060208284031215610eb057610eaf610cd7565b5b6000610ebe84828501610d25565b91505092915050565b60008060408385031215610ede57610edd610cd7565b5b6000610eec85828601610d25565b9250506020610efd85828601610d25565b9150509250929050565b7f4e487b7100000000000000000000000000000000000000000000000000000000600052602260045260246000fd5b60006002820490506001821680610f4e57607f821691505b602082108103610f6157610f60610f07565b5b50919050565b7f4e487b7100000000000000000000000000000000000000000000000000000000600052601160045260246000fd5b60008160011c9050919050565b6000808291508390505b6001851115610fed57808604811115610fc957610fc8610f67565b5b6001851615610fd85780820291505b8081029050610fe685610f96565b9450610fad565b94509492505050565b60008261100657600190506110c2565b8161101457600090506110c2565b816001811461102a576002811461103457611063565b60019150506110c2565b60ff84111561104657611045610f67565b5b8360020a91508482111561105d5761105c610f67565b5b506110c2565b5060208310610133831016604e8410600b84101617156110985782820a90508381111561109357611092610f67565b5b6110c2565b6110a58484846001610fa3565b925090508184048111156110bc576110bb610f67565b5b81810290505b9392505050565b60006110d482610d3a565b91506110df83610e63565b925061110c7fffffffffffffffffffffffffffffffffffffffffffffffffffffffffffffffff8484610ff6565b905092915050565b600061111f82610d3a565b915061112a83610d3a565b925082820261113881610d3a565b9150828204841483151761114f5761114e610f67565b5b5092915050565b600061116182610d3a565b915061116c83610d3a565b925082820190508082111561118457611183610f67565b5b92915050565b7f45524332303a2064656372656173656420616c6c6f77616e63652062656c6f7760008201527f207a65726f000000000000000000000000000000000000000000000000000000602082015250565b60006111e6602583610c30565b91506111f18261118a565b604082019050919050565b60006020820190508181036000830152611215816111d9565b9050919050565b7f45524332303a20617070726f76652066726f6d20746865207a65726f2061646460008201527f7265737300000000000000000000000000000000000000000000000000000000602082015250565b6000611278602483610c30565b91506112838261121c565b604082019050919050565b600060208201905081810360008301526112a78161126b565b9050919050565b7f45524332303a20617070726f766520746f20746865207a65726f20616464726560008201527f7373000000000000000000000000000000000000000000000000000000000000602082015250565b600061130a602283610c30565b9150611315826112ae565b604082019050919050565b60006020820190508181036000830152611339816112fd565b9050919050565b7f45524332303a206d696e7420746f20746865207a65726f206164647265737300600082015250565b6000611376601f83610c30565b915061138182611340565b602082019050919050565b600060208201905081810360008301526113a581611369565b9050919050565b7f45524332303a20696e73756666696369656e7420616c6c6f77616e6365000000600082015250565b60006113e2601d83610c30565b91506113ed826113ac565b602082019050919050565b60006020820190508181036000830152611411816113d5565b9050919050565b7f45524332303a207472616e736665722066726f6d20746865207a65726f20616460008201527f6472657373000000000000000000000000000000000000000000000000000000602082015250565b6000611474602583610c30565b915061147f82611418565b604082019050919050565b600060208201905081810360008301526114a381611467565b9050919050565b7f45524332303a207472616e7366657220746f20746865207a65726f206164647260008201527f6573730000000000000000000000000000000000000000000000000000000000602082015250565b6000611506602383610c30565b9150611511826114aa565b604082019050919050565b60006020820190508181036000830152611535816114f9565b9050919050565b7f45524332303a207472616e7366657220616d6f756e742065786365656473206260008201527f616c616e63650000000000000000000000000000000000000000000000000000602082015250565b6000611598602683610c30565b91506115a38261153c565b604082019050919050565b600060208201905081810360008301526115c78161158b565b905091905056fea2646970667358221220b7916fb640369149cc455d709d932f7bafd5c3a4550912ac9212e8ecdc5d536164736f6c63430008110033",
    "linkReferences": {},
    "deployedLinkReferences": {}
}